:1000000045C0000060C000005EC000005CC0000091
:100010005AC0000058C0000056C0000054C0000084
:1000200052C0000050C000004EC000004CC0000094
:100030004AC0000048C0000046C0000044C00000A4
:1000400042C0000040C000003EC000003CC00000B4
:100050003AC0000038C0000036C0000034C00000C4
:1000600032C0000030C000002EC000002CC00000D4
:100070002AC0000028C0000026C0000024C00000E4
:1000800022C0000020C000001EC0000011241FBEBE
:10009000CFEFD0E1DEBFCDBF11E0A0E0B1E0EEE0F8
:1000A000F7E000E00BBF02C007900D92A23FB1073E
:1000B000D9F721E0A2EFB1E001C01D92A73FB2073E
:1000C000E1F7CAD122C39CCF95B39F70282F207F20
:1000D000922B95BB95B39E7F95BB95B39D7F95BBAA
:1000E00095B3946095BB000095B39B7F95BB32E4BC
:1000F0003A95F1F700C025B330E1839FC001112488
:10010000922F9F70892B85BB85B3846085BB0000CF
:1001100085B38B7F85BB82E48A95F1F700C0089593
:1001200095B39F70282F207F922B95BB95B391603C
:1001300095BB95B39D7F95BB95B3946095BB00002F
:1001400095B39B7F95BB32E43A95F1F700C025B398
:1001500030E1839FC0011124922F9F70892B85BBB2
:1001600085B3846085BB000085B38B7F85BB82E44B
:100170008A95F1F700C008958FEF84BB87E893E17B
:100180000197F1F700C0000080E385BB83E09CDFAE
:1001900081EE94E00197F1F700C0000083E094DF66
:1001A00092E39A95F1F783E08FDF82E08DDF88E2BA
:1001B0008BDF8CE089DF86E087DF81E085DF83EFFE
:1001C00091E00197F1F700C000000895CF93DF930D
:1001D000EC0108C02196A4DF89EF90E00197F1F7C8
:1001E00000C0000088818111F5CFDF91CF91089583
:1001F00080EF809361008FE080936200089560E05B
:1002000046C0462F50E080E190E0062E02C0880FE5
:10021000991F0A94E2F780958F608093620089EFBE
:1002200090E00197F1F700C0000090B1977097300F
:1002300051F52CC0E82FF0E0292F30E0082E02C045
:10024000359527950A94E2F720FD1BC080B190E018
:100250000E2E02C0959587950A94E2F780FFF6CF9F
:1002600087E893E10197F1F700C00000CA01880F09
:10027000991F480F591F4A515E4FE40FF51F8081A7
:1002800008958F5F01C080E08330A0F26F5F64301B
:1002900008F4B7CF80E00895CF93DF9381E014DFB7
:1002A0008AE091E093DFC0E0D0E010C0A8DFFE015B
:1002B000EB5FFE4F808334DF2FE78AE196E0215029
:1002C00080409040E1F700C000002196C430D10585
:1002D0006CF31092090181E0F7DE8AE191E076DFAC
:1002E0002FE78AE196E0215080409040E1F700C07E
:1002F0000000DF91CF910895CF93DF9381E0E4DE9A
:1003000087E291E063DFC0E0D0E014C08AD16AE008
:1003100070E019D1805DFE01EE50FE4F808300DF5A
:100320002FE78AE196E0215080409040E1F700C03D
:1003300000002196C430D1054CF31092F6012FEB4A
:1003400087E299E0215080409040E1F700C0000032
:10035000DF91CF910895CF93DF93EC0165E071E0D9
:100360006ED1892B31F062EF71E0CE0168D1892B1B
:1003700031F481E0A9DE83E391E028DF05C081E06C
:10038000A3DE83E491E022DF2FE78AE196E02150AB
:1003900080409040E1F700C00000DF91CF910895C8
:1003A00081E092DE80910401882321F082E591E0D2
:1003B0000DDF03C08DE591E009DF2FE78AE196E0CC
:1003C000215080409040E1F700C00000089581E096
:1003D0007BDE80E879DE8CE691E0F8DE80EC74DE8E
:1003E00081E891E0F3DE84E96FDE8AE891E0EEDEF9
:1003F00084ED6ADE85E991E0E9CE089581E064DE6E
:1004000080EA91E0E3DE80EC5FDE8BEA91E0DEDE05
:100410002FE78AE196E0215080409040E1F700C04C
:100420000000EDDE8A3211F437DF03C0833209F4B5
:10043000B7DFCDCF089581E047DE88EB91E0C6DEDF
:1004400080EC42DE88EC91E0C1CE089581E03CDE94
:100450008AED91E0BBCE0895CF93DF9300D000D01A
:100460001F92CDB7DEB788DEC3DEB1DFC8DE8133D1
:1004700059F4C4DFC4DE8A3211F40EDF03C08332C4
:1004800009F48EDFA4DFF2CF823399F5D4DFB7DE33
:100490008A3211F431DF2BC0833249F581E014DE5A
:1004A0008AED91E093DEFE01319685E0DF011D9239
:1004B0008A95E9F700E010E014C0A1DEE1E0F0E089
:1004C000EC0FFD1FE00FF11F80832ADEBFE926E855
:1004D00081E0B15020408040E1F700C000000F5F94
:1004E0001F4F043011054CF3CE01019634DF6FDF4E
:1004F000BDCF833309F0BACFA9DFFE01319685E085
:10050000DF011D928A95E9F700E010E014C077DE64
:10051000E1E0F0E0EC0FFD1FE00FF11F808300DE53
:10052000BFE926E881E0B15020408040E1F700C0FB
:1005300000000F5F1F4F043011054CF3CE010196F0
:100540000ADF45DF93CF97FB072E16F4009406D001
:1005500077FD08D00BD007FC05D03EF4909581952F
:100560009F4F0895709561957F4F0895AA1BBB1BFF
:1005700051E107C0AA1FBB1FA617B70710F0A61BA3
:10058000B70B881F991F5A95A9F780959095BC01C4
:10059000CD0108958F929F92AF92BF92CF92DF923A
:1005A000EF92FF92CF93DF93EC01688179818A818A
:1005B0009B81611571058105910521F464E279ED56
:1005C0008BE597E02DE133EF41E050E041D0490168
:1005D0005A019B01AC01A7EAB1E456D06B017C0142
:1005E000ACEEB4EFA50194015BD0DC01CB018C0D26
:1005F0009D1DAE1DBF1DB7FF03C00197A109B048E7
:1006000088839983AA83BB839F77DF91CF91FF90E3
:10061000EF90DF90CF90BF90AF909F908F90089514
:10062000B9CF80E091E0B6CFA0E0B0E080930001C8
:1006300090930101A0930201B09303010895FB017F
:10064000DC018D91019080190110D9F3990B089567
:10065000052E97FB16F400940FD057FD05D024D03B
:1006600007FC02D046F408C050954095309521957E
:100670003F4F4F4F5F4F08959095809570956195CE
:100680007F4F8F4F9F4F089531D0A59F900DB49FFE
:10069000900DA49F800D911D11240895B7FFF4CFF4
:1006A000F3DF821B930B0895A1E21A2EAA1BBB1B3A
:1006B000FD010DC0AA1FBB1FEE1FFF1FA217B3072E
:1006C000E407F50720F0A21BB30BE40BF50B661F44
:1006D000771F881F991F1A9469F760957095809508
:1006E00090959B01AC01BD01CF010895A29FB0017F
:1006F000B39FC001A39F700D811D1124911DB29F56
:0E070000700D811D1124911D0895F894FFCFF6
:10070E0001000000013132333400456E74657220F1
:10071E006E657720636F64653A00436F646520559C
:10072E007064617465640054656D7020436F646518
:10073E003A200020416363657373204772616E74C3
:10074E00656400204163636573732044656E69655B
:10075E0064002052656E74205061696400205265F9
:10076E006E74204E6F74205061696400202A3A2006
:10077E0057617368726F6F6D20233A2052656E74E5
:10078E000020313A204D676D740020323A205465B6
:10079E006E616E740020333A20436C69656E74008E
:1007AE002A2053657420436F6465002320436865D7
:1007BE00636B2052656E74002A2047656E20546567
:1007CE006D7020436F64650023204163636573730E
:1007DE002057617368726F6F6D00456E746572207D
:1007EE00436F64653A003132333435363738392A3F
:0207FE003023A6
:00000001FF
